:020000040000FA
:1000000000008A110A120428D430FE000030FF00DC
:1000100080308A110A12B3208A110A128312031344
:10002000A1007F08A000D630A2000030A3008312F8
:1000300003132008A4002108A500FF30A007031C1B
:10004000A1032508240403199C2804302207A400D6
:10005000A501A50D2308A5072408FE002508FF001B
:1000600080308A110A12B3208A110A1283120313F4
:10007000A7007F08A6002208FE002308FF008030AA
:100080008A110A12B3208A110A1283120313A900DB
:10009000A5007F08A400A80002302207A400A50143
:1000A000A50D2308A5072408FE002508FF008030C1
:1000B0008A110A12B3208A110A1283120313A500AF
:1000C000AB007F08AA00A400831203132608AA002D
:1000D0002708AB00FF30A607031CA7032B082A0440
:1000E000031995282808FE002908FF0080308A118E
:1000F0000A12A0208A110A1283120313AA002408EC
:1001000083120313840083138312031325188317A8
:100110002A0883120313800083120313A80A031909
:10012000A90AA40A0319A50A642806308312031336
:10013000A2070318A30A17288A110A12DC2808004C
:10014000003A0319A728803A0319AE2800347E0824
:10015000840083137F188317000808007F088A0033
:100160007E0882000800003A0319BB28803A031970
:10017000C528FF0100347E08840083137F1883178D
:100180000008FF00840A000808008A110A12AE2045
:10019000FD00FE0FFF03FF0A8A110A12AE20FC00C9
:1001A0007D08FF007C08080001340034DD34003491
:0C01B0002C34003401340034080000340A
:00000001FF
