:100000000C308400113008208E2B04068001840AF5
:100010000406031D052864000034820701340334FC
:100020000234063404340C340834093482070334AF
:0600300006340C34093413
:1007020083128E0004308F0053309000900B872BA1
:100712008F0B852B8E0B832B080083128C018D018E
:1007220083168601FF30850083128601051CB02BDB
:100732008C018D0100308A000C081620860064307E
:10074200831281238C0A03198D0A0D08803A9100C5
:1007520080301102043003190C02031C9B2B851CF0
:10076200CB2B04308C008D0100308A000C03162044
:1007720086006430831281238C0803198D038C0355
:100782000D08803A910080301102013003190C02E9
:100792000318B52B051DE42B8C018D0100308A0056
:1007A2000C080D2086006430831281238C0A031901
:1007B2008D0A0D08803A9100803011020830031929
:1007C2000C02031CCF2B851D972B08308C008D014A
:1007D20000308A000C030D208600643083128123CE
:1007E2008C0803198D038C030D08803A9100803028
:0E07F2001102013003190C02031C972BE92B96
:00000001FF
