:020000040000FA
:1000000000008A110A1204287B30FE000130FF0034
:1000100080308A110A122B218A110A1283120313CB
:10002000A1007F08A0007D30A2000130A300831250
:1000300003132008A4002108A500FF30A007031C1B
:10004000A1032508240403199C2804302207A400D6
:10005000A501A50D2308A5072408FE002508FF001B
:1000600080308A110A122B218A110A12831203137B
:10007000A7007F08A6002208FE002308FF008030AA
:100080008A110A122B218A110A1283120313A90062
:10009000A5007F08A400A80002302207A400A50143
:1000A000A50D2308A5072408FE002508FF008030C1
:1000B0008A110A122B218A110A1283120313A50036
:1000C000AB007F08AA00A400831203132608AA002D
:1000D0002708AB00FF30A607031CA7032B082A0440
:1000E000031995282808FE002908FF0080308A118E
:1000F0000A1218218A110A1283120313AA00240873
:1001000083120313840083138312031325188317A8
:100110002A0883120313800083120313A80A031909
:10012000A90AA40A0319A50A642806308312031336
:10013000A2070318A30A17288A110A12A028080088
:10014000831603138610831203138610831603137A
:10015000851083120313851083120313B4018312D5
:100160000313851CB62883120313B40A83120313E6
:100170003408003003190130B500B400340C031802
:10018000C428831203138610031CC9288312031387
:10019000861483120313B40183120313861CD3281D
:1001A00083120313B40A83120313340800300319B3
:1001B0000130B500B400340C0318E1288312031396
:1001C0008510031CE628831203138514F830FF0002
:1001D0002A308A110A124C218A110A12831203133F
:1001E000861083120313B40183120313861CFB28A9
:1001F00083120313B40A8312031334080030031963
:100200000130B500B400340C03180929831203131C
:100210008510031C0E298312031385145030FF0030
:10022000C3308A110A124C218A110A12AC28080024
:10023000003A03191F29803A0319262900347E0841
:10024000840083137F188317000808007F088A0042
:100250007E0882000800003A03193329803A031906
:100260003D29FF0100347E08840083137F18831723
:100270000008FF00840A000808008A110A122621DB
:10028000FD00FE0FFF03FF0A8A110A122621FC005F
:100290007D08FF007C08080083120313AD007F086F
:1002A000AC00AE01AF01831203132D082F02031D12
:1002B0005B292C082E0203187A29043083120313B9
:1002C000B000B1010000FF30831203133007B20009
:1002D000FF30B30000300318310FB3073208B0000D
:1002E0003308B10033083204031D6229AE0A031932
:1002F000AF0A532908000134003483340134363402
:08030000003401340034003424
:02400E000100AF
:00000001FF
